{
  "_format": "hh-sol-artifact-1",
  "contractName": "Assessment",
  "sourceName": "contracts/Assessment.sol",
  "abi": [
    {
      "inputs": [
        {
          "internalType": "uint256",
          "name": "initBalance",
          "type": "uint256"
        }
      ],
      "stateMutability": "payable",
      "type": "constructor"
    },
    {
      "inputs": [
        {
          "internalType": "uint256[]",
          "name": "array",
          "type": "uint256[]"
        },
        {
          "internalType": "uint256[]",
          "name": "array2",
          "type": "uint256[]"
        }
      ],
      "name": "arrayproddiff",
      "outputs": [],
      "stateMutability": "payable",
      "type": "function"
    },
    {
      "inputs": [
        {
          "internalType": "uint256[]",
          "name": "array",
          "type": "uint256[]"
        },
        {
          "internalType": "uint256[]",
          "name": "array2",
          "type": "uint256[]"
        }
      ],
      "name": "arraysumdiff",
      "outputs": [],
      "stateMutability": "nonpayable",
      "type": "function"
    },
    {
      "inputs": [],
      "name": "balance",
      "outputs": [
        {
          "internalType": "uint256",
          "name": "",
          "type": "uint256"
        }
      ],
      "stateMutability": "view",
      "type": "function"
    },
    {
      "inputs": [],
      "name": "getBalance",
      "outputs": [
        {
          "internalType": "uint256",
          "name": "",
          "type": "uint256"
        }
      ],
      "stateMutability": "view",
      "type": "function"
    }
  ],
  "bytecode": "0x60806040526040516106c03803806106c08339818101604052810190610025919061006d565b806000819055505061009a565b600080fd5b6000819050919050565b61004a81610037565b811461005557600080fd5b50565b60008151905061006781610041565b92915050565b60006020828403121561008357610082610032565b5b600061009184828501610058565b91505092915050565b610617806100a96000396000f3fe60806040526004361061003e5760003560e01c8062cef3791461004357806312065fe01461006c57806312975ad914610097578063b69ef8a8146100b3575b600080fd5b34801561004f57600080fd5b5061006a600480360381019061006591906103ef565b6100de565b005b34801561007857600080fd5b50610081610189565b60405161008e9190610476565b60405180910390f35b6100b160048036038101906100ac91906103ef565b610192565b005b3480156100bf57600080fd5b506100c8610246565b6040516100d59190610476565b60405180910390f35b60008060005b845181101561012857848181518110610100576100ff610491565b5b60200260200101518361011391906104ef565b9250808061012090610523565b9150506100e4565b5060005b83518110156101705783818151811061014857610147610491565b5b60200260200101518261015b91906104ef565b9150808061016890610523565b91505061012c565b50808261017d919061056b565b60008190555050505050565b60008054905090565b60006001905060006001905060005b84518110156101e5578481815181106101bd576101bc610491565b5b6020026020010151836101d0919061059f565b925080806101dd90610523565b9150506101a1565b5060005b835181101561022d5783818151811061020557610204610491565b5b602002602001015182610218919061059f565b9150808061022590610523565b9150506101e9565b50808261023a919061056b565b60008190555050505050565b60005481565b6000604051905090565b600080fd5b600080fd5b600080fd5b6000601f19601f8301169050919050565b7f4e487b7100000000000000000000000000000000000000000000000000000000600052604160045260246000fd5b6102ae82610265565b810181811067ffffffffffffffff821117156102cd576102cc610276565b5b80604052505050565b60006102e061024c565b90506102ec82826102a5565b919050565b600067ffffffffffffffff82111561030c5761030b610276565b5b602082029050602081019050919050565b600080fd5b6000819050919050565b61033581610322565b811461034057600080fd5b50565b6000813590506103528161032c565b92915050565b600061036b610366846102f1565b6102d6565b9050808382526020820190506020840283018581111561038e5761038d61031d565b5b835b818110156103b757806103a38882610343565b845260208401935050602081019050610390565b5050509392505050565b600082601f8301126103d6576103d5610260565b5b81356103e6848260208601610358565b91505092915050565b6000806040838503121561040657610405610256565b5b600083013567ffffffffffffffff8111156104245761042361025b565b5b610430858286016103c1565b925050602083013567ffffffffffffffff8111156104515761045061025b565b5b61045d858286016103c1565b9150509250929050565b61047081610322565b82525050565b600060208201905061048b6000830184610467565b92915050565b7f4e487b7100000000000000000000000000000000000000000000000000000000600052603260045260246000fd5b7f4e487b7100000000000000000000000000000000000000000000000000000000600052601160045260246000fd5b60006104fa82610322565b915061050583610322565b925082820190508082111561051d5761051c6104c0565b5b92915050565b600061052e82610322565b91507fffffffffffffffffffffffffffffffffffffffffffffffffffffffffffffffff82036105605761055f6104c0565b5b600182019050919050565b600061057682610322565b915061058183610322565b9250828203905081811115610599576105986104c0565b5b92915050565b60006105aa82610322565b91506105b583610322565b92508282026105c381610322565b915082820484148315176105da576105d96104c0565b5b509291505056fea2646970667358221220c3af43125510bcdd6866a3e4594a121efd417d42f477368168bbf82745086c5764736f6c63430008110033",
  "linkReferences": {},
  "deployedLinkReferences": {}
}